:10011300D56301220000000000000000D563F52232
:1001230032C0D0D56304C221C28CD0D03232C0D009
:10013300C28E758DF0758B5FD28ED56304C221C2DA
:100143008ED0D0323232D220C2DC3232323232322C
:010153003279
:03000300020123D4
:03000B00020124CB
:03001300020130B7
:03001B00020131AE
:0300230002014790
:03002B0002014887
:0300330002003395
:03003B0002014E71
:0300430002014F68
:03004B000201505F
:0300530002015156
:03005B000201524D
:0300630002015344
:10015400EBFDEAFCE9F8E4F50AF50B90E678E0201B
:10016400E6F97480F0EF7A00C333CA33CA54FE90C0
:10017400E679F07F01EF603EE50AB50805E50BB5C9
:0401840009005032EC
:0801880090E678E0FE30E02271
:0701900090E678E030E11772
:10019700EDFBECFAE8F990E679120082F0050BE541
:0701A7000B7006050A800A37
:0401AE00E4FF80C723
:0401B200EE30E2C386
:0F01B600E4FF80BF90E6787440F0AE0AAF0B22F2
:1001C500EBFDEAFCE9F8E4F50EF50F90E678E020A2
:1001D500E6F97480F0EF7A00C333CA33CA4401905C
:1001E500E679F090E678E020E004E030E2F590E68C
:0701F50078E0FF5403601FD6
:1001FC007E01E50D6401450C700690E6787420F0E4
:0F020C0090E679EDFBECFAE8F9E0120066800865
:10021B00E4FE90E6787440F0EE6066E50EB50C05F2
:07022B00E50FB50D00505A6C
:0B02320090E678E030E0F9E030E207F1
:07023D00E4FE7440F080DFD5
:10024400E50D24FFFBE50C34FFF5F0050FE50F7019
:1002540002050EE50EB5F00BE50FB5030690E67842
:100264007420F0E50EB50C0BE50FB50D0690E6789D
:100274007440F090E679EDFBECFAE8F908E87002D6
:0D0284000CECE01200668097AE0EAF0F226A
:0B029100751000EF6005146006800887
:0E029C008D9880078DC08003751001AF102271
:1002AA00EBFDEAFCE9F8751100EF600514600F80B8
:0102BA001A29
:1002BB00EDFBECFAE8F9E5981200668010EDFBEC2B
:1002CB00FAE8F9E5C01200668003751101AF11223F
:1002DB00EBFDEAFCE9F8751300EF60051460208074
:0102EB003CD6
:0602EC00E5121512603955
:1002F2003099FDC299EDFBECFAE8F908E870020CBE
:0E030200EC120082F59980E2E5121512601BE4
:1003100030C1FDC2C1EDFBECFAE8F908E870020C4F
:0E032000EC120082F5C180E2751301AF1322CA
:10032E00EBFDEAFCE9F8751500EF6005146020801E
:01033E003C82
:06033F00E51415146039FD
:100345003098FDC298EDFBECFAE8F908E870020C6C
:0E035500ECE59912006680E2E5141514601BB9
:1003630030C0FDC2C0EDFBECFAE8F908E870020CFE
:0E037300ECE5C112006680E2751501AF15229F
:1003810090E6007412F000000090E6047480F00022
:1003910000007402F00000007404F0000000740614
:1003A100F00000007408F0000000E4F0000000F527
:1003B100B27580FF75B37F759080F5B475A0FFF5B8
:1003C100B575B0FFF5B675B1FF90E680E030E76A2C
:1003D10090E601E04440F000000090E61274A2F0C3
:1003E10000000090E6137420F000000090E6147401
:1003F100E2F000000090E6157460F000000090E665
:1004010018E4F000000090E61A7404F00000009077
:10041100E6497482F0000000F0000000F0000000E6
:10042100F000000000000090E6247402F0000000DB
:0A04310090E625E4F0000000803A98
:10043B0090E61274A0F000000090E613E0547FF0F9
:10044B0000000090E61474E0F000000090E615E068
:10045B00547FF000000000000090E624E4F0000060
:10046B000090E6257440F000000090E6917480F057
:10047B00000000F0000000F0000000F00000009011
:06048B00E680E020E70816
:1004910090E698E4F000000043AF0185AFAF90E62D
:1004A100057402F0F589438910858989C28CC28E51
:1004B100758CF7758AF7758DF0758B5FC221D2AB9C
:0B04C100D2BBD2AFE4F564C222C2231C
:1004CC00D224759AF0759B00759DF8759E0090E688
:0504DC0080E030E7089C
:0804E100756602E4F567800670
:0E04E900E4F566756740E5AA30E003021E5C8C
:0604F700202203020810A0
:1004FD00E568249770030205D224FA600302080B05
:10050D001569E567156770021566E5664567605004
:10051D0090E67BE0F521A2089293D290C290A209B9
:10052D009293D290C290A20A9293D290C290A20BB3
:10053D009293D290C290A20C9293D290C290A20D9F
:10054D009293D290C290A20E9293D290C290A20F8B
:10055D009293D290C290E567156770AE156680AA2A
:10056D0090E67BE0F521A2089293D290C290A20969
:10057D009293D290C290A20A9293D290C290A20B63
:10058D009293D290C290A20C9293D290C290A20D4F
:10059D009293D290C290A20E9293D290C290A20F3B
:0605AD009293E569700D58
:0505B300C22230230804
:1005B800D292D290C290C292D290C290C22490E6B7
:1005C800917480F0000000021E59E5AA30E503028C
:0205D800080D0C
:1005DA00E56A24BE70030206D024F260030208060C
:1005EA001569E567156770021566E5664567605027
:1005FA00A2B29200D290C290A2B29201D290C290BC
:10060A00A2B29202D290C290A2B29203D290C290A7
:10061A00A2B29204D290C290A2B29205D290C29093
:10062A00A2B29206D290C290A2B29207D290C2907F
:10063A0090E67CE520F0E567156770AE156680AA3E
:10064A00A2B29200D290C290A2B29201D290C2906B
:10065A00A2B29202D290C290A2B29203D290C29057
:10066A00A2B29204D290C290A2B29205D290C29043
:10067A00A2B29206D290C290A2B29207E569700D18
:05068A00C2223023082C
:10068F00D292D290C290C292D290C29090E67CE564
:09069F0020F090E680E030E71441
:1006A80090E6987402F000000090E699E4F00000EB
:0406B800000208082C
:1006BC0090E698E4F000000090E6997440F0000099
:0B06CC000002080D90E680E030E72FF0
:0706D700E569B4FF005013B8
:1006DE00756600856967E567156770021566E4F54E
:0306EE0069803BE5
:1006F100E56904F569E4F5667567FFE567156770F7
:050701002A15668026A8
:07070600E569B44000501347
:10070D00756600856967E567156770021566E4F51E
:03071D0069800CE4
:10072000E56924C0F569E4F56675673FE5664567E8
:02073000605017
:10073200A2B29200D290C290A2B29201D290C29082
:10074200A2B29202D290C290A2B29203D290C2906E
:10075200A2B29204D290C290A2B29205D290C2905A
:10076200A2B29206D290C290A2B29207D290C29046
:10077200E56715677002156690E67CE520F080AAB1
:10078200A2B29200D290C290A2B29201D290C29032
:10079200A2B29202D290C290A2B29203D290C2901E
:1007A200A2B29204D290C290A2B29205D290C2900A
:1007B200A2B29206D290C290A2B29207E569700DDF
:0507C200C222302308F3
:1007C700D292D290C290C292D290C29090E67CE52B
:0907D70020F090E680E030E71309
:1007E00090E6987402F000000090E699E4F00000B2
:0307F00000801571
:1007F30090E698E4F000000090E6997440F0000061
:0D080300008007C222021E59C222021F6E91
:08081000E5AA30E503021F6EAA
:09081800E56645677003021E222B
:1008210090E67BE0F568E568B46403021DEE50567E
:10083100E568B44B03021CD75025E5687003020834
:10084100CA24BD70030212F324FD70030216B91409
:100851007003020ED424FE7003021935021E09E54D
:100861006824B47003021BB624F9700302116E14DC
:10087100700302162924FE7003020F2924F370036A
:1008810002147E021E09E5682497B40F004003029A
:100891001E09FA232A90089A73020ADE021E09022F
:1008A1001E09021E09021967021E090208D2021856
:1008B100FF021E0902198902122F021833021DD0EC
:0908C100021039021B10021E098D
:1008CA00E4F566F56702081890E67BE0F520A207D2
:1008DA009223C20785206AE0F569E56A24BE70039F
:1008EA000209C924F2600A24EE7003020A4B020AC2
:0108FA00D924
:0708FB00E5697003020AD950
:100902001569E56724FCF567E56634FFF566E5667B
:040912004567605085
:1009160090E67BE0F521A2089293D290C290A209BC
:100926009293D290C290A20A9293D290C290A20BB6
:100936009293D290C290A20C9293D290C290A20DA2
:100946009293D290C290A20E9293D290C290A20F8E
:100956009293D290C290E567156770AE156680AA2D
:1009660090E67BE0F521A2089293D290C290A2096C
:100976009293D290C290A20A9293D290C290A20B66
:100986009293D290C290A20C9293D290C290A20D52
:100996009293D290C290A20E9293D290C290A20F3E
:0609A6009293E569700F59
:0509AC00C22230230C03
:0A09B100D292D290C290C29280024E
:1009BB00D222D290C290E4F566F567020AD9E569B6
:0509CB007003020AD9CF
:1009D000E56724FDF567E56634FFF566E567C395D1
:0F09E00069F567E5669400F566E5691569605786
:1009EF0090E67BE0F521A2089293D290C290A209E3
:1009FF009293D290C290A20A9293D290C290A20BDD
:100A0F009293D290C290A20C9293D290C290A20DC8
:100A1F009293D290C290A20E9293D290C290A20FB4
:090A2F009293E569700B30230875
:100A3800D292D290C290C292D290C29080A3C22287
:100A4800020AD9E56724FCF567E56634FFF5669088
:100A5800E67BE0F521A20F9293756B80E56924FF90
:100A6800B40800506CFA232A900A7473020AC6026A
:100A78000ABE020AB6020AAE020AA6020A9E020AC2
:060A880096020A8E804B6D
:100A8E00A2089293D290C290A2099293D290C29051
:100A9E00A20A9293D290C290A20B9293D290C2903D
:100AAE00A20C9293D290C290A20D9293D290C29029
:0F0ABE00A20E9293D290C290A20F92933023086F
:100ACD00D292D290C290C292D290C290C224020809
:100ADD001890E67C7469F090E67BE0F520A2079211
:100AED0023C20785206A90E67CE56AF090E67BE0FC
:100AFD00F56990E67CF090E67BE0F521A20F9293EC
:100B0D00E56A24BE7003020BF424F2600A24EE7031
:070B1D0003020DD2021E1FAE
:070B2400E5697003020ED128
:090B2B00156990E680E030E7084E
:080B34007566017567FC80067F
:0C0B3C00E4F56675673CE56645676050AF
:100B4800A2B29200D290C290A2B29201D290C29068
:100B5800A2B29202D290C290A2B29203D290C29054
:100B6800A2B29204D290C290A2B29205D290C29040
:100B7800A2B29206D290C290A2B29207D290C2902C
:100B8800E56715677002156690E67CE520F080AA97
:100B9800A2B29200D290C290A2B29201D290C29018
:100BA800A2B29202D290C290A2B29203D290C29004
:100BB800A2B29204D290C290A2B29205D290C290F0
:100BC800A2B29206D290C290A2B29207E5696004DE
:040BD800D222800B9A
:030BDC00302308BB
:100BDF00D292D290C290C292D290C29090E67CE50F
:0C0BEF0020F0021E1FE5697003020ED109
:070BFB0090E680E030E72FD7
:070C0200E569B4FF00501387
:100C0900756600856967E567156770021566E4F51D
:030C190069803BB4
:100C1C00E56904F569E4F5667567FFE567156770C6
:050C2C002A1566802678
:070C3100E569B43E00501319
:100C3800756600856967E567156770021566E4F5EE
:030C480069800CB4
:100C4B00E56924C3F569E4F56675673CE5664567B8
:020C5B006050E7
:100C5D00A2B29200D290C290A2B29201D290C29052
:100C6D00A2B29202D290C290A2B29203D290C2903E
:100C7D00A2B29204D290C290A2B29205D290C2902A
:100C8D00A2B29206D290C290A2B29207D290C29016
:100C9D00E56715677002156690E67CE520F080AA81
:100CAD00A2B29200D290C290A2B29201D290C29002
:100CBD00A2B29202D290C290A2B29203D290C290EE
:100CCD00A2B29204D290C290A2B29205D290C290DA
:100CDD00A2B29206D290C290A2B29207E5696003C9
:030CED00020DC332
:0A0CF00090E680E020E703020DB457
:0D0CFA0090E67BE0F569E5697003020DB43A
:100D0700D290C29090E67CE520F075660085696711
:100D1700E567156770021566E4F569E5664567607E
:010D2700507B
:100D2800A2B29200D290C290A2B29201D290C29086
:100D3800A2B29202D290C290A2B29203D290C29072
:100D4800A2B29204D290C290A2B29205D290C2905E
:100D5800A2B29206D290C290A2B29207D290C2904A
:100D6800E56715677002156690E67CE520F080AAB5
:100D7800A2B29200D290C290A2B29201D290C29036
:100D8800A2B29202D290C290A2B29203D290C29022
:100D9800A2B29204D290C290A2B29205D290C2900E
:100DA800A2B29206D290C290A2B29207C222302377
:010DB8000C2E
:0A0DB900D292D290C290C292800242
:100DC300D222D290C29090E67CE520F0021E1F75DD
:0A0DD3006B80E569B40801D3407499
:100DDD00E569030303541F756600F567536907E55D
:030DED0069700B1F
:100DF000E567156770021566756908E56645676001
:010E000050A1
:100E0100A2B29200D290C290A2B29201D290C290AC
:100E1100A2B29202D290C290A2B29203D290C29098
:100E2100A2B29204D290C290A2B29205D290C29084
:100E3100A2B29206D290C290A2B29207D290C29070
:100E4100E56715677002156690E67CE520F080AADB
:100E5100E56924FFB408005072FA232A900E6173E9
:100E6100020EB3020EAB020EA3020E9B020E930200
:0A0E71000E8B020E83020E7B8051EF
:100E7B00A2B29200D290C290A2B29201D290C29032
:100E8B00A2B29202D290C290A2B29203D290C2901E
:100E9B00A2B29204D290C290A2B29205D290C2900A
:0F0EAB00A2B29206D290C290A2B2920730230850
:100EBA00D292D290C290C292D290C29090E67CE531
:100ECA0020F0E4F566F567020818E5671567700211
:100EDA00156690E67C7447F090E67BE0F569E56775
:0A0EEA00156770021566E56C601ACA
:100EF40090E67C7446F0E56DF0E56EF0E56FF0E5A4
:0A0F040070F0E571F0E572F080096D
:100F0E0090E67C7450F0E4F0F0E4F56DF56EF56C5F
:0F0F1E00F56FF570F571F572020818E56C600A51
:100F2D00E4F566F567C224020818E56715677002D7
:100F3D00156690E67BE024FF9223E5671567700246
:100F4D001566E0F569E567156770021566E0F56FE2
:100F5D00E567156770021566E0F570E56715677052
:100F6D00021566E0F571E567156770021566E0F527
:100F7D0072E56715677002156675F003E569A4FBE8
:100F8D00E567C39BF567E56695F0F566E569156957
:050F9D00700302103496
:100FA20090E67BE0F521E0F522E0F523A20F929393
:100FB200A2B29207D290C290A20E9293A2B29206CD
:100FC200D290C290A20D9293A2B29205D290C290F8
:100FD200A20C9293A2B29204D290C290A20B9293CC
:100FE200A2B29203D290C290A20A9293A2B29202A9
:100FF200D290C290A2099293A2B29201D290C290D0
:10100200A2089293A2B292005520FAE52355226AD1
:09101200F56CE569700B30230850
:10101B00D292D290C290C292D290C290E56C7003E1
:03102B00020F9918
:0F102E0085226D85206EC224020818E56C600AC9
:10103D00E4F566F567C224020818E56715677002C6
:10104D00156690E67BE024FF9223E5671567700235
:10105D001566E0F569E567156770021566E0F56FD1
:10106D00E567156770021566E0F570E56715677041
:10107D00021566E0F571E567156770021566E0F516
:10108D0072E567156770021566E0F521E56715676E
:10109D0070021566E0F522E567156770021566E0CA
:1010AD00F523E567156770021566752000E569245F
:1010BD00FFB408004003021169FA232A9010CD7382
:1010CD0002113C02113002112402111802110C02FE
:0B10DD0011000210F40210E80211697B
:1010E800A20F9293A2B29207D290C290A20E9293AC
:1010F800A2B29206D290C290A20D9293A2B2920589
:10110800D290C290A20C9293A2B29204D290C290B2
:10111800A20B9293A2B29203D290C290A20A929387
:10112800A2B29202D290C290A2099293A2B2920164
:10113800D290C290A2089293A2B29200E5235520C1
:0B114800FAE52355226AF56C302308FD
:10115300D292D290C290C292D290C290E56C6006B5
:1011630085226D85206EC22402081890E67C745394
:10117300F0E56715677002156690E67BE024FF9241
:1011830023E567156770021566E0F56990E67CF064
:10119300E567156770021566E567C39569F567E549
:0E11A300669400F566E56915697003021E1F6B
:1011B10090E67BE0F521A2089293A2B29200D29030
:1011C100C290A2099293A2B29201D290C290A20AB5
:1011D1009293A2B29202D290C290A20B9293A2B227
:1011E1009203D290C290A20C9293A2B29204D29096
:1011F100C290A20D9293A2B29205D290C290A20E79
:101201009293A2B29206D290C290A20F9293A2B2EE
:091211009207E569700B30230817
:10121A00D292D290C290C292D290C29090E67CE5CD
:10122A0020F00211A890E67C7473F0E567156770E8
:10123A0002156690E67BE0F56990E67CF0E56715B5
:10124A00677002156690E67BE0F521E56924FFB434
:10125A00080040030212F0FA232A9012687302125D
:10126A00D60212CA0212BE0212B20212A602129AC0
:08127A0002128E021282806E46
:10128200A2089293A2B29200D290C290A209929323
:10129200A2B29201D290C290A20A9293A2B29202F8
:1012A200D290C290A20B9293A2B29203D290C29019
:1012B200A20C9293A2B29204D290C290A20D9293E7
:1012C200A2B29205D290C290A20E9293A2B29206BC
:1012D200D290C290A20F9293A2B29207D290C290E1
:1012E20090E67CE520F0E567156770021566020856
:1012F2001890E67C7443F0E56715677002156690F6
:10130200E67BE0F56990E67CF0E56715677002150B
:1013120066E567C39569F567E5669400F566E56479
:0D13220070020564E56915697003021E1F65
:10132F0090E67BE0F521A2089293A2B29200756538
:08133F0000E565B564005006ED
:10134700D290056580F3756500E565B564005006C4
:10135700C290056580F3A2099293A2B292017565C6
:0813670000E565B564005006C5
:10136F00D290056580F3756500E565B5640050069C
:10137F00C290056580F3A20A9293A2B2920275659C
:08138F0000E565B5640050069D
:10139700D290056580F3756500E565B56400500674
:1013A700C290056580F3A20B9293A2B29203756572
:0813B70000E565B56400500675
:1013BF00D290056580F3756500E565B5640050064C
:1013CF00C290056580F3A20C9293A2B29204756548
:0813DF0000E565B5640050064D
:1013E700D290056580F3756500E565B56400500624
:1013F700C290056580F3A20D9293A2B2920575651E
:0814070000E565B56400500624
:10140F00D290056580F3756500E565B564005006FB
:10141F00C290056580F3A20E9293A2B292067565F3
:08142F0000E565B564005006FC
:10143700D290056580F3756500E565B564005006D3
:10144700C290056580F3A20F9293A2B292077565C9
:0814570000E565B564005006D4
:10145F00D290056580F3756500E565B564005006AB
:10146F00C290056580F390E67CE520F0021326908C
:10147F00E67C7463F0E56715677002156690E67B8E
:10148F00E0F56990E67CF0E56715677002156690E8
:10149F00E67BE0F521E56470020564E56924FFB49D
:1014AF0008004003021626FA232A9014BD73021572
:1014BF00F00215C80215A002157802155002152862
:0914CF000215000214D8021626D1
:1014D800A2089293A2B29200756500E565B5640012
:0214E8005006AC
:1014EA00D290056580F3756500E565B56400500620
:1014FA00C290056580F3A2099293A2B29201756522
:08150A0000E565B56400500620
:10151200D290056580F3756500E565B564005006F7
:10152200C290056580F3A20A9293A2B292027565F7
:0815320000E565B564005006F8
:10153A00D290056580F3756500E565B564005006CF
:10154A00C290056580F3A20B9293A2B292037565CD
:08155A0000E565B564005006D0
:10156200D290056580F3756500E565B564005006A7
:10157200C290056580F3A20C9293A2B292047565A3
:0815820000E565B564005006A8
:10158A00D290056580F3756500E565B5640050067F
:10159A00C290056580F3A20D9293A2B29205756579
:0815AA0000E565B56400500680
:1015B200D290056580F3756500E565B56400500657
:1015C200C290056580F3A20E9293A2B2920675654F
:0815D20000E565B56400500658
:1015DA00D290056580F3756500E565B5640050062F
:1015EA00C290056580F3A20F9293A2B29207756525
:0815FA0000E565B56400500630
:10160200D290056580F3756500E565B56400500606
:10161200C290056580F390E67CE520F0E5671567EA
:1016220070021566020818E5671567700215669064
:10163200E67BE0F569E567156770021566E0F5215E
:10164200E567156770021566E56924FFB408005066
:1016520061FA232A90165A730216AC0216A40216D5
:101662009C02169402168C02168402167C021674D0
:021672008040B6
:10167400A2089292D290C290A2099292D290C29061
:10168400A20A9292D290C290A20B9292D290C2904D
:10169400A20C9292D290C290A20D9292D290C29039
:1016A400A20E9292D290C290A20F9292D290C29025
:1016B400C224020818E56715677002156690E67B78
:1016C400E0F569E567156770021566E0F521E567E1
:1016D400156770021566E56470020564E56924FF08
:1016E400B40800400302182EFA232A9016F373025A
:1016F400180A0217E60217C202179E02177A021787
:0A1704005602173202170E02182ECB
:0E170E00A2089292756500E565B5640050066C
:10171C00D290056580F3756500E565B564005006EB
:10172C00C290056580F3A2099292756500E565B5D6
:04173C0064005006EF
:10174000D290056580F3756500E565B564005006C7
:10175000C290056580F3A20A9292756500E565B5B1
:0417600064005006CB
:10176400D290056580F3756500E565B564005006A3
:10177400C290056580F3A20B9292756500E565B58C
:0417840064005006A7
:10178800D290056580F3756500E565B5640050067F
:10179800C290056580F3A20C9292756500E565B567
:0417A8006400500683
:1017AC00D290056580F3756500E565B5640050065B
:1017BC00C290056580F3A20D9292756500E565B542
:0417CC00640050065F
:1017D000D290056580F3756500E565B56400500637
:1017E000C290056580F3A20E9292756500E565B51D
:0417F000640050063B
:1017F400D290056580F3756500E565B56400500613
:10180400C290056580F3A20F9292756500E565B5F7
:041814006400500616
:10181800D290056580F3756500E565B564005006EE
:10182800C290056580F3C22402081890E67C74749F
:10183800F0E56715677002156690E67BE0F569903C
:10184800E67CF0E56715677002156690E67BE0F5C3
:1018580021E56924FFB4080040030218FCFA232A92
:1018680090186C730218DA0218CE0218C20218B661
:0E1878000218AA02189E0218920218868076A4
:10188600A2089293A2B29200D290C290A209929319
:10189600A2B29201D290C290A20A9293A2B29202EE
:1018A600D290C290A20B9293A2B29203D290C2900F
:1018B600A20C9293A2B29204D290C290A20D9293DD
:1018C600A2B29205D290C290A20E9293A2B29206B2
:1018D600D290C290A20F9293A2B29207D292D290C5
:1018E600C290C292D290C29090E67CE520F0E56765
:1018F600156770021566020818E567156770021508
:101906006690E67BE0F569E567156770021566E5A2
:1019160067C39569F567E5669400F566E569156937
:02192600600857
:1019280090E67BE0F59080F2C22402081890E67CED
:101938007449F0E5671567700215667402F074045F
:06194800F0E4F566F5670E
:10194E00E5672425F890E67CE6F00567E567B43D8B
:10195E00EFE4F566F567020818E56715677002157E
:10196E006690E67BE0F563D221D28E2021FDE567FD
:10197E00156770021566C22402081890E67C747210
:10198E00F0E56715677002156690E67BE0F520902E
:10199E00E67CF0E567156770021566752100E52097
:1019AE00B46403021A705033E520B44903021A7B63
:1019BE005019E52024CF7003021A58147003021A2E
:1019CE006424EE7003021A8B021AF3E52024AA7027
:1019DE0003021AA224F36042021AF3E520B4700245
:1019EE0080505011E5202497601824FC603824FEA6
:1019FE00601C021AF3E520248E604324FC607602FC
:021A0E001AF3C9
:101A1000209303021AF6752101021AF620B203027E
:101A20001AF6752101021AF6209003021AF67521A2
:101A300001021AF6209203021AF6752101021AF623
:101A4000209103021AF6752101021AF6209403026E
:101A50001AF6752101021AF6209503021AF675216D
:101A600001021AF6209603021AF6752101021AF6EF
:101A700020B003021AF6752101807B30B178752100
:0E1A800001807320B370752101806B309608D1
:081A8E0030B00F7521018060EA
:101A9600D29630B003752101C2968054859020C23B
:101AA60090C292C293C294C295C2967569FFE569C7
:101AB600156970FA20B303752101E52030E602D2DC
:101AC60096E52030E502D295E52030E402D294E591
:101AD6002030E302D293E52030E202D292E52030B4
:101AE600E102D291E52030E007D2908003752145CE
:101AF60090E67BE0F52090E67CE521F0E56715674A
:101B06006003021E1F1566020818E5671567700256
:101B1600156690E67BE0F520E567156770021566A9
:101B2600E0F521E520B469028021500FE52024CF9D
:101B3600605514605E24CF601E8064E520249360A7
:0B1B46002224FD602A24FE603280543F
:101B5100E5216004D293804FC293804BE52160045C
:101B6100D2908043C290803FE5216004D2928037B9
:101B7100C2928033E5216004D291802BC2918027EB
:101B8100E5216004D294801FC294801BE52160048A
:101B9100D2958013C295800FE5216004D29680070B
:101BA100C2968003752045E56715676003021E1F15
:101BB1001566020818E567156770021566E56C6021
:011BC1000A19
:101BC200E4F566F567C22402081890E67BE07574B6
:101BD20000F575E567156770021566E0F576E5674D
:101BE200156770021566E0F521E567156770021545
:101BF20066E0F522E567156770021566E0F523E5F4
:101C020067156770021566E0F564E567156770028F
:101C12001566757701AA74AB75E5751575700215B1
:081C220074EA4B7003021CCFB1
:0A1C2A00E4F56C856463E57760095A
:101C3400D221D28E2021FD8003120113E576B40057
:041C440001D3401474
:0A1C4800756500E565B57600500AE9
:101C5200C293D290C290056580EFA2089293A2B27D
:101C62009200D290C290A2099293A2B29201D29013
:101C7200C290A20A9293A2B29202D290C290A20BF6
:101C82009293A2B29203D290C290A20C9293A2B269
:101C92009204D290C290A20D9293A2B29205D290D7
:101CA200C290A20E9293A2B29206D290C290A20FBA
:101CB2009293A2B29207E5235520FAE52355226AB0
:0D1CC200F56CD290C290E56C6003021C1717
:101CCF00E4F564C224020818E5671567700215660B
:101CDF0090E67BE0F569856974757500E5671567B2
:101CEF0070021566E0F569E5752569F575E43574DB
:101CFF00F574E567156770021566E0F576E567150B
:101D0F006770021566E0F521E567156770021566C5
:101D1F00E0F577E567156770021566E0F564E5672E
:101D2F00156770021566AA74AB75E57515757002A7
:061D3F001574EA4B607709
:071D4500856463E577600986
:101D4C00D221D28E2021FD8003120113E576B4003E
:041D5C0001D340145B
:0A1D6000756500E565B57600500AD0
:101D6A00C293D290C290056580EFA2089293A2B264
:051D7A009200300002A0
:101D7F00803BD292D290C290D292D290C290C29215
:101D8F00D290C290D290C290D290C290D290C29074
:101D9F00D290C290D290C290D292D290C290C29260
:101DAF00D290C290C292D290C290021D35D292D2DE
:101DBF0090C290C292D290C290E4F564C2240208FD
:101DCF0018E56715677002156690E67BE0F56312FC
:101DDF000113E567156770021566C224020818E53E
:101DEF006715677002156690E67BE0F564E5671589
:101DFF006770021566C224020818E5664567601011
:101E0F0090E67C7445F0E567156770EE156680EA1D
:061E1F0002081830242B1C
:071E250090E680E030E713B6
:101E2C0090E6987402F000000090E699E4F000004F
:031E3C0000801112
:101E3F0090E698E4F000000090E6997440F00000FE
:0D1E4F000090E6917480F00000000204CCC9
:061E5C002022030204CC69
:081E6200E5AA30E5030204CCFF
:101E6A00E5682497600A24FA7003021F6E021F6C49
:091E7A00E56A24B06003021F6751
:101E83001569E567156770021566E5664567605075
:101E9300A2B29200D290C290A2B29201D290C2900A
:101EA300A2B29202D290C290A2B29203D290C290F6
:101EB300A2B29204D290C290A2B29205D290C290E2
:101EC300A2B29206D290C290A2B29207D290C290CE
:101ED30090E67CE520F0E567156770AE156680AA8D
:101EE300A2B29200D290C290A2B29201D290C290BA
:101EF300A2B29202D290C290A2B29203D290C290A6
:101F0300A2B29204D290C290A2B29205D290C29091
:101F1300A2B29206D290C290A2B29207E569700D66
:051F2300C2223023087A
:101F2800D292D290C290C292D290C29090E67CE5B2
:091F380020F090E680E030E71390
:101F410090E6987402F000000090E699E4F0000039
:031F5100008015F8
:101F540090E698E4F000000090E6997440F00000E8
:0D1F6400008007C2220204CCC2220204CC7D
:101F7100F4255553424658322055534220312E31D3
:101F81002020202020202020202020202020202050
:101F91002020202020202020202020202020202040
:0F1FA10020202020202020202020202020202051
:030000000200AD4E
:1000AD00758178E4787FF6D8FD901F71E493700226
:1000BD00804EC31392D5C31392D1FFA3E493F8B02E
:1000CD00D5402130D505E4A393F5A0E420D102A3BA
:1000DD009320D507F608DFF3A380D1F208B800F618
:1000ED0005A080F2E8030303541F2420F9E8540708
:1000FD00F8E4D333B80002800333D8FD47F780D836
:06010D0075A0FF02038152
:10006600CB30E11520E00FC083C08289828A83CB22
:0C007600F0D082D08322CBF322CBF72203
:10008200EB30E11320E00EC083C08289828A83E0D4
:10009200D082D08322E3226405700EC083C082899D
:0B00A200828A8393D082D08322E72261
:011FB0000030
:00000001FF
